:1000000002000E22000000000000000200E67581E0
:100010002B1200ADE582600302007A780079007A45
:10002000007B007C007D00EC4D601C88828983E4AD
:1000300093A3A882A9838A828B83F0A3AA82AB832D
:100040001CBCFFE31D80E07582007583007C007D91
:1000500000EC4D600AE4F0A31CBCFFF51D80F275B6
:1000600082007583007C007D00EC4D600AE4F0A303
:100070001CBCFFF51D80F21200031200E980FE0D8A
:100080000A4C5035314220506572696F64206D65AD
:10009000746572206578616D706C650D0A00256469
:1000A0000A003C4E4F20464C4F41543E0075E6003E
:1000B00075E70075D60075D70075CE0075CF007551
:1000C000C60075C700758E1175BE0075BF0090FF24
:1000D000FA1206ED758200227A1479C87864D8FE87
:1000E000D9FADAF62222050932747FC0E07400C022
:1000F000E07480C0E012065E158115811581C28C06
:10010000758901D2B4D2A9D2AF758A00758C0075F9
:10011000090020B4FD30B4FDD28C20B4FD30B4FD14
:10012000C28C8509821205E5AA82AB83ACF0FDC0C2
:1001300002C003C004C00590000075F0807447122F
:100140000542AA82AB83ACF0FDE58124FCF58185F4
:100150008C82C002C003C004C0051205E5AE82AFA8
:1001600083A8F0F9C006C007C000C0019000007568
:10017000F0807443120542AE82AF83A8F0F9E581A6
:1001800024FCF581D005D004D003D002C006C007FE
:10019000C000C0018A828B838CF0ED1205F0AA8228
:1001A000AB83ACF0FDE58124FCF581AE8A7F008E47
:1001B000828F83C002C003C004C0051206FEAE8257
:1001C000AF83A8F0F9D005D004D003D002C006C098
:1001D00007C000C0018A828B838CF0ED1205F0AA63
:1001E00082AB83ACF0FDE58124FCF581C002C00345
:1001F000C004C00590A2B475F0117435120542AA6E
:1002000082AB83ACF0FDE58124FCF581C002C00324
:10021000C004C00590000075F080743F12070BAA5F
:1002200082AB83ACF0FDE58124FCF581C002C00304
:10023000C004C00590000075F0707442120542AA17
:1002400082AB83ACF0FDE58124FCF5818A828B834F
:100250008CF0ED12050EAA82AB8375220AE4F52319
:100260008A828B83C002C00312067FAC82AD83D02A
:1002700003D00275220AE4F5238A828B83C002C070
:1002800003C004C0051206B5AE82AF8375220AE42E
:10029000F5238E828F8312067FAE82AF83D005D086
:1002A00004D003D002752264E4F5238A828B83C0D4
:1002B00002C003C004C005C006C0071206B5A8826C
:1002C000A98375220AE4F5238882898312067FA810
:1002D00082A983D007D006D005D004D003D002EC89
:1002E0004D70057580408061BC0108BD00057580BA
:1002F000F98056BC0208BD000575808C804BBC039C
:1003000008BD00057580A88040BC0408BD000575C7
:1003100080398035BC0508BD000575802A802ABC5F
:100320000608BD0005758002801FBC0708BD0005DA
:100330007580F88014BC0808BD0005758000800930
:10034000BC0906BD0003758030EE4F700575904006
:100350008061BE0108BF00057590F98056BE020895
:10036000BF000575908C804BBE0308BF00057590DB
:10037000A88040BE0408BF00057590398035BE05D1
:1003800008BF000575902A802ABE0608BF000575C3
:100390009002801FBE0708BF00057590F88014BE4C
:1003A0000808BF00057590008009BE0906BF00035C
:1003B000759030E849700575A0FF8061B80108B9F3
:1003C000000575A0F98056B80208B9000575A08C23
:1003D000804BB80308B9000575A0A88040B8040890
:1003E000B9000575A0398035B80508B9000575A0B4
:1003F0002A802AB80608B9000575A002801FB80730
:1004000008B9000575A0F88014B80808B90005758A
:10041000A0008009B80906B9000375A030C3EA94AA
:1004200032EB64809480E433FC7018C3745A9AE40D
:1004300064808BF063F08095F04008C2C1D2B2D2E4
:10044000B38062C3EA941EEB64809480E433FD7051
:100450000BEC6008D2C1C2B2D2B38049ED6008D2C1
:10046000C1D2B2C2B3803EC3745A9AE464808BF0A6
:1004700063F08095F05018C374AA9AE464808BF0FE
:1004800063F08095F04008D2C1C2B2D2B38016C3E7
:1004900074AA9AE464808BF063F08095F05006D2E1
:1004A000C1D2B2C2B3C002C003749EC0E07400C027
:1004B000E07480C0E012065EE58124FBF581020154
:1004C00009E522452360467A01E52225E0F522E58B
:1004D00023334012F523E5829522E58395234003DB
:1004E0000A80E6C3E52313F523E52213F522C3E5CD
:1004F000829522F5F0E58395234005F58385F0820A
:10050000C3E52313F523E52213F522DAE1221208CD
:1005100053700AE582458345F0700122E430D11220
:10052000F4700BE5F0F47006E58330E7012290806B
:100530000022700AE5F07006E58320E70122907F33
:10054000FF22120930BC00030208CFEF60FA30D559
:1005500002B2D1E583B4FF030208E5E582B4FF03EC
:100560000208E5258340072482400B0208CF24833C
:100570001450030208E5F582EA8DF0A4A8F0EA8E93
:10058000F0A428F8E435F0F9EB8DF0A428E935F073
:10059000F9E433CA8FF0A429F9EA35F0FAEBF88EC2
:1005A000F0A429F9EA35F0FAE433FBEC8DF0A42944
:1005B000F9EA35F0FAE43BFBE88FF0A42AFAEB35D0
:1005C000F0FBE433CCFD8EF0A42AFAEB35F0FBE42B
:1005D0003CFCED8FF0A42BFBEC35F0FC20E7031284
:1005E00008FD0208AEE4AC82FBFAF97486020967E2
:1005F0001209307900E583B58202800D500312099B
:1006000071E583C3958212098BE5D0C465D020E1E2
:1006100017EA2DFAEB3EFBEC3FFC5009740112097E
:100620008BEC4480FC0208AEC3EA9DFAEB9EFBEC27
:100630009FFC500FC3E499F9E49AFAE49BFBE49C15
:10064000FCB2D11208FD0208AE020FEE85821985B8
:10065000831A85F01B850A1C900649020A57C008B8
:10066000858108E50824FBF51CE50824FBF88619BC
:1006700008861A08861B900649120A57D00822C21B
:10068000D5E58330E70DD2D5E4C39582F582E495B4
:1006900083F583E52330E70BE4C39522F522E49547
:1006A00023F5231204C130D50BE4C39582F582E40F
:1006B0009583F58322C2D5E58330E70DD2D5E4C317
:1006C0009582F582E49583F583E52330E70DB2D575
:1006D000E4C39522F522E49523F52312082A30D5A8
:1006E0000BE4C39582F582E49583F58322AA82AB5D
:1006F000838B048CCB8ACA75C83475985222AC831C
:10070000AB827A007900748E02100C12093030D559
:1007100002B2D1BF0009BC00030208F20208E5BC26
:1007200000030208CFE583B4FF0BE582B4FF0302A8
:1007300008F20208CFE582B4FF030208E5C39583FF
:100740005007247F400B0208CF2480145003020876
:10075000E5C0E0E4CCCBCAF98D228E238F24EF5480
:10076000F0C4F5257583068525F0EB84F582E9C490
:10077000F9EAC4FAEBC4FBEC540FC47803D6FC18B6
:10078000EBD6FB18EAD6FA8582F0EDA4A8F0FD8539
:1007900082F0EEA428FEE435F0F88582F0EFA4287C
:1007A000FFE435F0F8E99DF9EA9EFAEB9FFBEC983F
:1007B000FCAD22AE23AF2430E7101582E92DF9EA13
:1007C0003EFAEB3FFBE43CFC80EDC082D58398C34E
:1007D000E933F9EA33FAEB33FBEC33FCC3E99DEA86
:1007E0009EEB9FEC9400B3E413F9D002D0E0C44A2E
:1007F000FAD003D0E0C44BFBD004D0E0F5F0540FA6
:10080000C44CFCD082158230F40FD3EC13FCEB13F4
:10081000FBEA13FAE913F90582E930E70A74012AC1
:10082000FAE43BFBE43CFC0208C67A10E4FBFCE57E
:100830008225E0F582E58333F583EB33FBEC33FC73
:10084000EB9522F5F0EC95234006FCABF0438201DA
:10085000DADD22121030C3749E958240397900127D
:10086000098B30D126E9F42401F582EAF43400F54D
:1008700083EBF43400F5F0ECF43400700AE58245C3
:100880008345F0700122E430E70F22EC20E7148961
:10089000828A838BF02230D10AE4F582F583F5F069
:1008A00074802274FFF582F583F5F0747F22B9809D
:1008B00003EA13B34010EA2401FAE43BFBE43CFCF6
:1008C00050047C800582BC000EBB000BBA0008E41B
:1008D000F5F0F583F58222A2D1E582138CF092F730
:1008E0008B838A8222E4F583F58275F080F4A2D1AD
:1008F0001322E4F583F58275F0C0747F227804EC4E
:100900007011E58224F8500AF582E4C9CACBFCD8FC
:10091000EF22EC7820058220E713D5820122C3E97B
:1009200033F9EA33FAEB33FBEC33FCD8EA158222D5
:10093000AA82AB83A2F73392D16002D2F7F582ACE0
:10094000F0E58124F9F8E6FD08E6FE0886F008E601
:10095000A2F73392D56002D2F7F583AFF022FCAB59
:10096000F0AA83A982749EC2D1F5821208FD020802
:10097000AEE582C583F582A2D133A2D592D113927E
:10098000D5ECCFFCEBCEFBEACDFA226040F8258215
:10099000500274FFF582E824F8501ECCCBCAF9E46B
:1009A000CC24F85014CBCAF9E4CB24F8500BCAF984
:1009B000E4CA24F8500379002224086010F8C3EC3C
:1009C00013FCEB13FBEA13FAE913F9D8F122AA821C
:1009D00074DFC0E07409C0E0C00BC00C8A8222053D
:1009E00012E4B51202051322AA8274302AFA24C630
:1009F000500A74072AFA3000034302208A8202094F
:100A0000CEE582FAC4540FF582C0021209E8D00282
:100A1000740F5AF5820209E8AA0DAB0EAC0FAD10A7
:100A2000AE11751820EE2EFEED235401FF4206EAAA
:100A30002AFAEB33FBEC33FCED33FDC3EE951440A7
:100A400008EEC39514FE430201D518D98A0D8B0E0A
:100A50008C0F8D108E112285820B85830CE4F5128C
:100A6000F513AA19AB1AAC1B8A828B838CF0121077
:100A700042FD74012AF519E43BF51A8C1BEDFA705E
:100A800003020FE7BA25028003020FDFC204C2058A
:100A9000C206C207C208C209C20AC20BC201C20210
:100AA000C2037514007515007516FFAB19AC1AADAD
:100AB0001B8B828C838DF0121042FAA3AB82AC8325
:100AC0008B198C1A8D1BBA25078A821209CE809247
:100AD0008A06BE3000402E8A06EE24C6402774FFE8
:100AE000B51613E51575F00AA4FEEA24D02EF51507
:100AF00070BFD20580BBE51675F00AA4FEEA24D0CB
:100B00002EF51680ACBA2E0A74FFB516A475160021
:100B1000809F8A06BE6100400E8A06EE248540074B
:100B20005302DFD2008002C200BA20028075BA23CD
:100B300003020BB2BA2A03020BB7BA2B02805FBAC8
:100B40002D028055BA4202805FBA4303020BFCBA01
:100B50004403020D37BA4503020D51BA4603020D94
:100B60004DBA4703020D55BA4903020D37BA4C027C
:100B7000803BBA4E03020D59BA4F03020D3EBA50E4
:100B800003020CD0BA5303020C20BA5503020D43E2
:100B9000BA5803020D48020D83D204020AB1D206EC
:100BA000020AB1D207020AB1D209020AB1D20A027C
:100BB0000AB1D20B020AB174FFB5162030090BE559
:100BC0001C14F8881C8615020AB1E51C24FEF8885E
:100BD0001C8606088607188E15020AB130090BE537
:100BE0001C14F8881C8616020AB1E51C24FEF8883D
:100BF0001C8606088607188E16020AB130090AE517
:100C00001C14F8881C8602800FE51C24FEF8881C42
:100C10008603088604188B028A821209CE020D8888
:100C2000E51C24FDF8881C86030886040886051840
:100C3000188B0D8C0E8D0F8B828C838DF01210779C
:100C4000AB82AC838B1774FFB5160385171620048F
:100C50001DC3E51795155016E515C39517F515AB8A
:100C6000151515EB60087582201209CE80F1850DEF
:100C700082850E83850FF0121042FBFA6029AB16B5
:100C80001516C3E464808BF063F08095F050188AE9
:100C9000821209CEAB0DAC0EAD0F0BBB00010C8B5D
:100CA0000D8C0E8D0F80C7200403020D88C3E5173D
:100CB00095154003020D88E515C39517F515AB157D
:100CC0001515EB7003020D887582201209CE80EE97
:100CD000E51C24FDF8881C86030886040886051890
:100CE000188B0D8C0E8D0FE50FFB30E7047A4380D7
:100CF00013EB546060047A50800AEB30E6047A49C2
:100D000080027A588A82C0021209CE75823A12098C
:100D1000CE7582301209CE7582781209CED002BA11
:100D20004902800BBA50028006850E82120A0185A4
:100D30000D82120A018051D20875140A804A751476
:100D400008804575140A8040751410803BD20180DC
:100D500037D2028033D203802FE51C24FDF8881C93
:100D6000860308860408860518188B0D8C0E8D0FD7
:100D70008B828C838DF0E51212105EA3E5131210A6
:100D80005E80058A821209CE20010620020330030C
:100D90005AE51C24FCF8881C86030886040886058E
:100DA0000886061818188B0D8C0E8D0F8E10750D79
:100DB000A2750E00750F80850D1D850E1E850F1FF7
:100DC0007401251DFEE4351EFFAB1F8E0D8F0E8BAB
:100DD0000F851D82851E83851FF0121042FBFA705D
:100DE00003020A628A821209CE80CCE514700302E3
:100DF0000A627B2B30092BE51C14F8881CE6FC33B7
:100E000095E0FDFEFF8C0D8D0E8E0F8F1020085E7D
:100E1000AC0D7D007E007F008C0D8D0E8E0F8F102F
:100E2000804C300A1FE51C24FCF8881C86040886C8
:100E3000050886060886071818188C0D8D0E8E0F6B
:100E40008F10802AE51C24FEF8881C86040886057D
:100E500018ED3395E0FEFF8C0D8D0E8E0F8F102058
:100E6000080CAC0DAD0E7E007F008E0F8F10300B86
:100E700043E50D450E450F451060397408B5140C57
:100E8000758230C0031209CED00380287410B514C7
:100E900023758230C0031209CED00330000C758256
:100EA00078C0031209CED003800A758258C003129D
:100EB00009CED003300825AC0DAD0EAE0FE510FF06
:100EC00030E717C3E49CFCE49DFDE49EFEE49FFF35
:100ED0008C0D8D0E8E0F8F108002C208751700D2F8
:100EE0000C8B00751100C000120A18D000200C0DE8
:100EF000E511C4FCE6FD4CF61888038002A6110536
:100F000017B20CE50D450E450F451070D68803E568
:100F100015700375150120051A200417E51704FC48
:100F2000C39515500E758220C0031209CED003154B
:100F30001580E930080E75822DC0031209CED0034A
:100F400015158024E517602030060E75822BC0032E
:100F50001209CED0031515800F30070C758220C002
:100F6000031209CED003151520041EAC151515C3A8
:100F7000E5179C50273005047C3080027C208C8251
:100F8000C0031209CED00380E2C3E51795155009BE
:100F9000E515C39517F51580037515008B00AB1784
:100FA0001517EB6022B20C200C0A08E6C4540FFBA4
:100FB0008B1180078603740F5BF511851182C000C9
:100FC0001209E8D00080D7200403020A62AB15158D
:100FD00015EB7003020A627582201209CE80EE8A38
:100FE000821209CE020A6285128285138322AA82A6
:100FF000BA0A0810990280FB75990D10990280FBBE
:101000008A9922FCABF0AA83A982749EF582C2D190
:10101000EC30E716D2D1E9F42401F9EAF43400FA0D
:10102000EBF43400FBECF43400FC1208FD0208AED3
:10103000AA82AB83A2F73392D16002D2F7F582ACD9
:10104000F02220F71430F6148883A88220F507E6F2
:10105000A88375830022E280F7E49322E02220F740
:101060001030F6118883A88220F507F6A8837583CF
:101070000022F280F7F022AA82AB83ACF07D007EE2
:10108000008A828B838CF0121042FFA3AA82AB836A
:10109000EF60070DBD00EA0E80E78D828E8322008F
:00000001FF
