:030000000201D426
:03000B00020039B7
:03001B000200C11F
:03002B0002014986
:10002E00C0F9A4B0999282F88090FF758C93758A6E
:10003E0081C0D0C0E0C083C08220E8360530E530F4
:10004E00B4642F753000E5312401D4F531B460224B
:10005E00753100E5322401D4F532B46015753200E5
:10006E00E5332401D4F533B41202B200B413037590
:10007E00330112028D90002EE531540F93F593E566
:10008E0031C4540F93F594E532540F93F58EE53247
:10009E00C4540F93F58FE533540F93F596E5332043
:1000AE00E40274A0C4540F93F597D082D083D0E0AD
:1000BE00D0D032758D93758B81C0D0C0E0C083C017
:1000CE00820530E530B46432753000E5312401D458
:1000DE00F531B46025753100E5322401D4F532B422
:1000EE006018753200E5332401D4F533B41202B230
:1000FE0000B4130675330120E90090002E12029809
:10010E00E535540F93F593E535C4540F93F594E507
:10011E0036540F93F58EE536C4540F93F58FE537AD
:10012E00540F93F596E53720E40274A0C4540F9350
:10013E00F597D082D083D0E0D0D032C2CFB28075C6
:10014E00CDFD75CC4A3230E94D30E9FA20FB153041
:10015E00FBFDE5372401D4F537B41202B201B41316
:10016E000375370120FA1030FAFDE5362401D4F577
:10017E0036B4600375360020F91030F9FDE53524EC
:10018E0001D4F535B46003753500020154C28CD22A
:10019E00F8D28E020154C28ED28C020206758911DB
:1001AE00C28CC28EC28D758C93758A81758D937536
:1001BE008B81D28CD2A9D2AB75C800C2CAC2CF7500
:1001CE00CBFD75CA4A2275817F759A03D280C20013
:1001DE00C20175E800759500759E0075F8007531C1
:1001EE00027532007533127535007536007537128B
:1001FE0075918C1201ABD2AF20E99230EA19D2E997
:10020E00E533B53714E532B5360FE531B5350AE5C8
:10021E0000B5010512026BC2E930E8DC20FB153097
:10022E00FBFDE5332401D4F533B41202B200B4134E
:10023E000375330120FA1030FAFDE5322401D4F5AE
:10024E0032B4600375320020F91030F9FDE5312427
:10025E0001D4F531B46003753100020206D2CAD260
:10026E00ADB2E8B2CA12028020EB0280F4C2CA021A
:10027E0002067A5A79FA78FAD8FED9FADAF62220F4
:10028E0000047591082275918C2220010475910845
:05029E002275918C2285
:00000001FF
